S01700004763634170706C69636174696F6E312E737265635B
S11300000C9434000C9449000C9449000C9449005D
S11300100C9449000C9449000C9449000C94490038
S11300200C9449000C9449000C9449000C94490028
S11300300C9449000C9449000C9449000C94490018
S11300400C9449000C9449000C9449000C94490008
S11300500C9449000C9449000C9449000C944900F8
S11300600C9449000C94490011241FBECFEFD8E032
S1130070DEBFCDBF11E0A0E0B1E0EEE0F1E002C0F0
S113008005900D92AA30B107D9F70E9462000C9432
S113009085000C9400009093C5008093C400E1ECAB
S11300A0F0E0808188608083E2ECF0E0808186600B
S11300B080830895E0ECF0E0908195FFFDCF80937C
S11300C0C6000895CF93DF93CDB7DEB72A970FB656
S11300D0F894DEBF0FBECDBF87E690E00E944B00D0
S11300E08AE0E0E0F1E0DE01119601900D928A953C
S11300F0E1F710E0E1E0F0E0EC0FFD1FE10FF11D8E
S111010080810E945A001F5FF5CFF894FFCF54
S10D010E5355502D474521212121AE
S9030000FC
