S00C00004C6162332E73726563D6
S11300000C9434000C943E000C943E000C943E007E
S11300100C943E000C943E000C943E000C943E0064
S11300200C943E000C943E000C943E000C943E0054
S11300300C943E000C943E000C943E000C943E0044
S11300400C943E000C943E000C943E000C943E0034
S11300500C943E000C943E000C943E000C943E0024
S11300600C943E000C943E0011241FBECFEFD8E048
S1130070DEBFCDBF0E9457000C9466000C940000B4
S11300809093C5008093C400E1ECF0E08081886027
S11300908083E2ECF0E08081866080830895E0EC68
S11300A0F0E0908195FFFDCF8093C600089587E628
S11300B090E00E944000C0E0D0E001C0CD2F87E076
S11300C00E944F00CF5FC830C8F7F9CFF894FFCF34
S9030000FC
